:0600000000F07FEF00F0AC
:100008002082FACF02F0FBCF03F0E9CF04F0EACF69
:1000180005F0E1CF06F0E2CF07F0D9CF08F0DACF4C
:1000280009F0F3CF0AF0F4CF0BF0F6CF0CF0F7CFCE
:100038000DF0F8CF0EF0F5CF0FF064EC01F05FECA7
:1000480001F0F6EC00F09CEC00F0F2A436D01C5065
:10005800101807E11D501118D8A403D0000E58EC51
:1000680001F01E50121807E11F501318D8A403D02E
:10007800000E51EC01F0D00E141816E1070E1518F9
:10008800D8A412D0010E58EC01F0010E51EC01F089
:10009800000E116E000E106E000E136E000E126E22
:1000A800000E156E000E146E104A112A124A132AF9
:1000B800144A152AF294FB0ED66E0FC0F5FF0EC037
:1000C800F8FF0DC0F7FF0CC0F6FF0BC0F4FF0AC025
:1000D800F3FF09C0DAFF08C0D9FF07C0E2FF06C076
:1000E800E1FF05C0EAFF04C0E9FF03C0FBFF02C04F
:1000F800FAFF2092110081EF00F000EE10F00C0ED4
:10010800EE6AE806FDE1DA0EF66E020EF76E000EF4
:10011800F86E00EE1CF010EE04F00900F5CFEEFFCB
:10012800E550E150FAE120902092000143EF01F000
:1001380081BA08D01B50D8A405D06FEC01F0010E8D
:100148001B6E120081AA12001B04D8A41200000E14
:100158001B6E120081B408D01850D8A405D008EC42
:1001680001F0010E186E120081A412001804D8A420
:100178001200000E186E120081B608D01950D8A4CB
:1001880005D028EC01F0010E196E120081A61200AC
:100198001904D8A41200000E196E120081B008D0FC
:1001A8001650D8A405D013EC01F0010E166E1200FB
:1001B80081A012001604D8A41200000E166E1200B8
:1001C80081B208D01750D8A405D031EC01F0010E47
:1001D800176E120081A212001704D8A41200000E94
:1001E800176E120081B808D01A50D8A405D03AEC7E
:1001F80001F0010E1A6E120081A812001A04D8A488
:100208001200000E1A6E1200D00E1E5C070E1F5848
:10021800D8B01200C80E1E26000E1F221200D00EE3
:100228001C5C070E1D58D8B01200C80E1C26000E04
:100238001D22120093809382938493869388938AD5
:10024800938C938EF19E12001E501F10D8B412008A
:10025800C80E1E5E000E1F5A12001C501D10D8B486
:100268001200C80E1C5E000E1D5A1200030E1D6EF1
:10027800E80E1C6E030E1F6EE80E1E6E120069EC6F
:1002880001F01EEC01F04AEC01F0FFD7C80ED56E64
:10029800FB0ED66EF28EF28A1200016E01A002D019
:1002A8008288120082981200016E01A002D0828614
:1002B800120082961200AEEC00F0C0EC00F01200C2
:1002C800D2EC00F0E4EC00F0120094969498949A22
:0A02D8001200E803E803827A120026
:020000040020DA
:08000000FFFFFFFFFFFFFFFF00
:020000040030CA
:0E000000FF210F0EFF0185FF0FC00FE00F4024
:00000001FF
